{
  "_format": "hh-sol-artifact-1",
  "contractName": "SimpleGovernance",
  "sourceName": "contracts/SimpleGovernance.sol",
  "abi": [
    {
      "inputs": [
        {
          "internalType": "address",
          "name": "governanceTokenAddress",
          "type": "address"
        }
      ],
      "stateMutability": "nonpayable",
      "type": "constructor"
    },
    {
      "anonymous": false,
      "inputs": [
        {
          "indexed": false,
          "internalType": "uint256",
          "name": "actionId",
          "type": "uint256"
        },
        {
          "indexed": true,
          "internalType": "address",
          "name": "caller",
          "type": "address"
        }
      ],
      "name": "ActionExecuted",
      "type": "event"
    },
    {
      "anonymous": false,
      "inputs": [
        {
          "indexed": false,
          "internalType": "uint256",
          "name": "actionId",
          "type": "uint256"
        },
        {
          "indexed": true,
          "internalType": "address",
          "name": "caller",
          "type": "address"
        }
      ],
      "name": "ActionQueued",
      "type": "event"
    },
    {
      "inputs": [
        {
          "internalType": "uint256",
          "name": "",
          "type": "uint256"
        }
      ],
      "name": "actions",
      "outputs": [
        {
          "internalType": "address",
          "name": "receiver",
          "type": "address"
        },
        {
          "internalType": "bytes",
          "name": "data",
          "type": "bytes"
        },
        {
          "internalType": "uint256",
          "name": "weiAmount",
          "type": "uint256"
        },
        {
          "internalType": "uint256",
          "name": "proposedAt",
          "type": "uint256"
        },
        {
          "internalType": "uint256",
          "name": "executedAt",
          "type": "uint256"
        }
      ],
      "stateMutability": "view",
      "type": "function"
    },
    {
      "inputs": [
        {
          "internalType": "uint256",
          "name": "actionId",
          "type": "uint256"
        }
      ],
      "name": "executeAction",
      "outputs": [],
      "stateMutability": "payable",
      "type": "function"
    },
    {
      "inputs": [],
      "name": "getActionDelay",
      "outputs": [
        {
          "internalType": "uint256",
          "name": "",
          "type": "uint256"
        }
      ],
      "stateMutability": "view",
      "type": "function"
    },
    {
      "inputs": [],
      "name": "governanceToken",
      "outputs": [
        {
          "internalType": "contract DamnValuableTokenSnapshot",
          "name": "",
          "type": "address"
        }
      ],
      "stateMutability": "view",
      "type": "function"
    },
    {
      "inputs": [
        {
          "internalType": "address",
          "name": "receiver",
          "type": "address"
        },
        {
          "internalType": "bytes",
          "name": "data",
          "type": "bytes"
        },
        {
          "internalType": "uint256",
          "name": "weiAmount",
          "type": "uint256"
        }
      ],
      "name": "queueAction",
      "outputs": [
        {
          "internalType": "uint256",
          "name": "",
          "type": "uint256"
        }
      ],
      "stateMutability": "nonpayable",
      "type": "function"
    }
  ],
  "bytecode": "0x60806040526202a3006003553480156200001857600080fd5b50604051620017db380380620017db83398181016040528101906200003e919062000169565b600073ffffffffffffffffffffffffffffffffffffffff168173ffffffffffffffffffffffffffffffffffffffff1603620000b0576040517f08c379a0000000000000000000000000000000000000000000000000000000008152600401620000a79062000222565b60405180910390fd5b806000806101000a81548173ffffffffffffffffffffffffffffffffffffffff021916908373ffffffffffffffffffffffffffffffffffffffff16021790555060016002819055505062000244565b600080fd5b600073ffffffffffffffffffffffffffffffffffffffff82169050919050565b6000620001318262000104565b9050919050565b620001438162000124565b81146200014f57600080fd5b50565b600081519050620001638162000138565b92915050565b600060208284031215620001825762000181620000ff565b5b6000620001928482850162000152565b91505092915050565b600082825260208201905092915050565b7f476f7665726e616e636520746f6b656e2063616e6e6f74206265207a65726f2060008201527f6164647265737300000000000000000000000000000000000000000000000000602082015250565b60006200020a6027836200019b565b91506200021782620001ac565b604082019050919050565b600060208201905081810360008301526200023d81620001fb565b9050919050565b61158780620002546000396000f3fe60806040526004361061004a5760003560e01c806312057a141461004f57806383240f831461007a578063c0c1cf55146100bb578063c21f37ca146100d7578063f96dae0a14610114575b600080fd5b34801561005b57600080fd5b5061006461013f565b6040516100719190610a34565b60405180910390f35b34801561008657600080fd5b506100a1600480360381019061009c9190610a85565b610149565b6040516100b2959493929190610b83565b60405180910390f35b6100d560048036038101906100d09190610a85565b610227565b005b3480156100e357600080fd5b506100fe60048036038101906100f99190610c6e565b6103c1565b60405161010b9190610a34565b60405180910390f35b34801561012057600080fd5b50610129610573565b6040516101369190610d41565b60405180910390f35b6000600354905090565b60016020528060005260406000206000915090508060000160009054906101000a900473ffffffffffffffffffffffffffffffffffffffff169080600101805461019290610d8b565b80601f01602080910402602001604051908101604052809291908181526020018280546101be90610d8b565b801561020b5780601f106101e05761010080835404028352916020019161020b565b820191906000526020600020905b8154815290600101906020018083116101ee57829003601f168201915b5050505050908060020154908060030154908060040154905085565b61023081610597565b61026f576040517f08c379a000000000000000000000000000000000000000000000000000000000815260040161026690610e19565b60405180910390fd5b600060016000838152602001908152602001600020905042816004018190555061036e8160010180546102a190610d8b565b80601f01602080910402602001604051908101604052809291908181526020018280546102cd90610d8b565b801561031a5780601f106102ef5761010080835404028352916020019161031a565b820191906000526020600020905b8154815290600101906020018083116102fd57829003601f168201915b505050505082600201548360000160009054906101000a900473ffffffffffffffffffffffffffffffffffffffff1673ffffffffffffffffffffffffffffffffffffffff166106ed9092919063ffffffff16565b503373ffffffffffffffffffffffffffffffffffffffff167f78a7d64f64ef6891bedfc1b6854447113cca07ace8747b8a6cf32a0fd5a80b17836040516103b59190610a34565b60405180910390a25050565b60006103cc3361071c565b61040b576040517f08c379a000000000000000000000000000000000000000000000000000000000815260040161040290610eab565b60405180910390fd5b3073ffffffffffffffffffffffffffffffffffffffff168573ffffffffffffffffffffffffffffffffffffffff1603610479576040517f08c379a000000000000000000000000000000000000000000000000000000000815260040161047090610f3d565b60405180910390fd5b600060025490506000600160008381526020019081526020016000209050868160000160006101000a81548173ffffffffffffffffffffffffffffffffffffffff021916908373ffffffffffffffffffffffffffffffffffffffff16021790555083816002018190555085858260010191826104f6929190611139565b504281600301819055506002600081548092919061051390611238565b91905055503373ffffffffffffffffffffffffffffffffffffffff167f4dfd92f69e02f82c8f6705b2e4a364465b588fa4773cda26786c3ca8df43a1958360405161055e9190610a34565b60405180910390a28192505050949350505050565b60008054906101000a900473ffffffffffffffffffffffffffffffffffffffff1681565b600080600160008481526020019081526020016000206040518060a00160405290816000820160009054906101000a900473ffffffffffffffffffffffffffffffffffffffff1673ffffffffffffffffffffffffffffffffffffffff1673ffffffffffffffffffffffffffffffffffffffff16815260200160018201805461061e90610d8b565b80601f016020809104026020016040519081016040528092919081815260200182805461064a90610d8b565b80156106975780601f1061066c57610100808354040283529160200191610697565b820191906000526020600020905b81548152906001019060200180831161067a57829003601f168201915b5050505050815260200160028201548152602001600382015481526020016004820154815250509050600081608001511480156106e557506003548160600151426106e29190611280565b10155b915050919050565b606061071384848460405180606001604052806029815260200161152960299139610866565b90509392505050565b60008060008054906101000a900473ffffffffffffffffffffffffffffffffffffffff1673ffffffffffffffffffffffffffffffffffffffff16634591164e846040518263ffffffff1660e01b815260040161077891906112b4565b602060405180830381865afa158015610795573d6000803e3d6000fd5b505050506040513d601f19601f820116820180604052508101906107b991906112e4565b90506000600260008054906101000a900473ffffffffffffffffffffffffffffffffffffffff1673ffffffffffffffffffffffffffffffffffffffff1663a3ec73fb6040518163ffffffff1660e01b8152600401602060405180830381865afa15801561082a573d6000803e3d6000fd5b505050506040513d601f19601f8201168201806040525081019061084e91906112e4565b6108589190611340565b905080821192505050919050565b6060824710156108ab576040517f08c379a00000000000000000000000000000000000000000000000000000000081526004016108a2906113e3565b60405180910390fd5b6000808673ffffffffffffffffffffffffffffffffffffffff1685876040516108d4919061143f565b60006040518083038185875af1925050503d8060008114610911576040519150601f19603f3d011682016040523d82523d6000602084013e610916565b606091505b509150915061092787838387610933565b92505050949350505050565b6060831561099557600083510361098d5761094d856109a8565b61098c576040517f08c379a0000000000000000000000000000000000000000000000000000000008152600401610983906114a2565b60405180910390fd5b5b8290506109a0565b61099f83836109cb565b5b949350505050565b6000808273ffffffffffffffffffffffffffffffffffffffff163b119050919050565b6000825111156109de5781518083602001fd5b806040517f08c379a0000000000000000000000000000000000000000000000000000000008152600401610a129190611506565b60405180910390fd5b6000819050919050565b610a2e81610a1b565b82525050565b6000602082019050610a496000830184610a25565b92915050565b600080fd5b600080fd5b610a6281610a1b565b8114610a6d57600080fd5b50565b600081359050610a7f81610a59565b92915050565b600060208284031215610a9b57610a9a610a4f565b5b6000610aa984828501610a70565b91505092915050565b600073ffffffffffffffffffffffffffffffffffffffff82169050919050565b6000610add82610ab2565b9050919050565b610aed81610ad2565b82525050565b600081519050919050565b600082825260208201905092915050565b60005b83811015610b2d578082015181840152602081019050610b12565b60008484015250505050565b6000601f19601f8301169050919050565b6000610b5582610af3565b610b5f8185610afe565b9350610b6f818560208601610b0f565b610b7881610b39565b840191505092915050565b600060a082019050610b986000830188610ae4565b8181036020830152610baa8187610b4a565b9050610bb96040830186610a25565b610bc66060830185610a25565b610bd36080830184610a25565b9695505050505050565b610be681610ad2565b8114610bf157600080fd5b50565b600081359050610c0381610bdd565b92915050565b600080fd5b600080fd5b600080fd5b60008083601f840112610c2e57610c2d610c09565b5b8235905067ffffffffffffffff811115610c4b57610c4a610c0e565b5b602083019150836001820283011115610c6757610c66610c13565b5b9250929050565b60008060008060608587031215610c8857610c87610a4f565b5b6000610c9687828801610bf4565b945050602085013567ffffffffffffffff811115610cb757610cb6610a54565b5b610cc387828801610c18565b93509350506040610cd687828801610a70565b91505092959194509250565b6000819050919050565b6000610d07610d02610cfd84610ab2565b610ce2565b610ab2565b9050919050565b6000610d1982610cec565b9050919050565b6000610d2b82610d0e565b9050919050565b610d3b81610d20565b82525050565b6000602082019050610d566000830184610d32565b92915050565b7f4e487b7100000000000000000000000000000000000000000000000000000000600052602260045260246000fd5b60006002820490506001821680610da357607f821691505b602082108103610db657610db5610d5c565b5b50919050565b600082825260208201905092915050565b7f43616e6e6f742065786563757465207468697320616374696f6e000000000000600082015250565b6000610e03601a83610dbc565b9150610e0e82610dcd565b602082019050919050565b60006020820190508181036000830152610e3281610df6565b9050919050565b7f4e6f7420656e6f75676820766f74657320746f2070726f706f736520616e206160008201527f6374696f6e000000000000000000000000000000000000000000000000000000602082015250565b6000610e95602583610dbc565b9150610ea082610e39565b604082019050919050565b60006020820190508181036000830152610ec481610e88565b9050919050565b7f43616e6e6f7420717565756520616374696f6e7320746861742061666665637460008201527f20476f7665726e616e6365000000000000000000000000000000000000000000602082015250565b6000610f27602b83610dbc565b9150610f3282610ecb565b604082019050919050565b60006020820190508181036000830152610f5681610f1a565b9050919050565b600082905092915050565b7f4e487b7100000000000000000000000000000000000000000000000000000000600052604160045260246000fd5b60008190508160005260206000209050919050565b60006020601f8301049050919050565b600082821b905092915050565b600060088302610ff97fffffffffffffffffffffffffffffffffffffffffffffffffffffffffffffffff82610fbc565b6110038683610fbc565b95508019841693508086168417925050509392505050565b600061103661103161102c84610a1b565b610ce2565b610a1b565b9050919050565b6000819050919050565b6110508361101b565b61106461105c8261103d565b848454610fc9565b825550505050565b600090565b61107961106c565b611084818484611047565b505050565b5b818110156110a85761109d600082611071565b60018101905061108a565b5050565b601f8211156110ed576110be81610f97565b6110c784610fac565b810160208510156110d6578190505b6110ea6110e285610fac565b830182611089565b50505b505050565b600082821c905092915050565b6000611110600019846008026110f2565b1980831691505092915050565b600061112983836110ff565b9150826002028217905092915050565b6111438383610f5d565b67ffffffffffffffff81111561115c5761115b610f68565b5b6111668254610d8b565b6111718282856110ac565b6000601f8311600181146111a0576000841561118e578287013590505b611198858261111d565b865550611200565b601f1984166111ae86610f97565b60005b828110156111d6578489013582556001820191506020850194506020810190506111b1565b868310156111f357848901356111ef601f8916826110ff565b8355505b6001600288020188555050505b50505050505050565b7f4e487b7100000000000000000000000000000000000000000000000000000000600052601160045260246000fd5b600061124382610a1b565b91507fffffffffffffffffffffffffffffffffffffffffffffffffffffffffffffffff820361127557611274611209565b5b600182019050919050565b600061128b82610a1b565b915061129683610a1b565b92508282039050818111156112ae576112ad611209565b5b92915050565b60006020820190506112c96000830184610ae4565b92915050565b6000815190506112de81610a59565b92915050565b6000602082840312156112fa576112f9610a4f565b5b6000611308848285016112cf565b91505092915050565b7f4e487b7100000000000000000000000000000000000000000000000000000000600052601260045260246000fd5b600061134b82610a1b565b915061135683610a1b565b92508261136657611365611311565b5b828204905092915050565b7f416464726573733a20696e73756666696369656e742062616c616e636520666f60008201527f722063616c6c0000000000000000000000000000000000000000000000000000602082015250565b60006113cd602683610dbc565b91506113d882611371565b604082019050919050565b600060208201905081810360008301526113fc816113c0565b9050919050565b600081905092915050565b600061141982610af3565b6114238185611403565b9350611433818560208601610b0f565b80840191505092915050565b600061144b828461140e565b915081905092915050565b7f416464726573733a2063616c6c20746f206e6f6e2d636f6e7472616374000000600082015250565b600061148c601d83610dbc565b915061149782611456565b602082019050919050565b600060208201905081810360008301526114bb8161147f565b9050919050565b600081519050919050565b60006114d8826114c2565b6114e28185610dbc565b93506114f2818560208601610b0f565b6114fb81610b39565b840191505092915050565b6000602082019050818103600083015261152081846114cd565b90509291505056fe416464726573733a206c6f772d6c6576656c2063616c6c20776974682076616c7565206661696c6564a2646970667358221220af64be1b50cb01e9c691682b39f5a7670ef601c649720afeb150ee9808be529764736f6c63430008180033",
  "linkReferences": {},
  "deployedLinkReferences": {}
}