{
  "_format": "hh-sol-artifact-1",
  "contractName": "SelfiePool",
  "sourceName": "contracts/SelfiePool.sol",
  "abi": [
    {
      "inputs": [
        {
          "internalType": "address",
          "name": "tokenAddress",
          "type": "address"
        },
        {
          "internalType": "address",
          "name": "governanceAddress",
          "type": "address"
        }
      ],
      "stateMutability": "nonpayable",
      "type": "constructor"
    },
    {
      "anonymous": false,
      "inputs": [
        {
          "indexed": true,
          "internalType": "address",
          "name": "receiver",
          "type": "address"
        },
        {
          "indexed": false,
          "internalType": "uint256",
          "name": "amount",
          "type": "uint256"
        }
      ],
      "name": "FundsDrained",
      "type": "event"
    },
    {
      "inputs": [
        {
          "internalType": "address",
          "name": "receiver",
          "type": "address"
        }
      ],
      "name": "drainAllFunds",
      "outputs": [],
      "stateMutability": "nonpayable",
      "type": "function"
    },
    {
      "inputs": [
        {
          "internalType": "uint256",
          "name": "borrowAmount",
          "type": "uint256"
        }
      ],
      "name": "flashLoan",
      "outputs": [],
      "stateMutability": "nonpayable",
      "type": "function"
    },
    {
      "inputs": [],
      "name": "governance",
      "outputs": [
        {
          "internalType": "contract SimpleGovernance",
          "name": "",
          "type": "address"
        }
      ],
      "stateMutability": "view",
      "type": "function"
    },
    {
      "inputs": [],
      "name": "token",
      "outputs": [
        {
          "internalType": "contract ERC20Snapshot",
          "name": "",
          "type": "address"
        }
      ],
      "stateMutability": "view",
      "type": "function"
    }
  ],
  "bytecode": "0x60806040523480156200001157600080fd5b506040516200124638038062001246833981810160405281019062000037919062000133565b600160008190555081600160006101000a81548173ffffffffffffffffffffffffffffffffffffffff021916908373ffffffffffffffffffffffffffffffffffffffff16021790555080600260006101000a81548173ffffffffffffffffffffffffffffffffffffffff021916908373ffffffffffffffffffffffffffffffffffffffff16021790555050506200017a565b600080fd5b600073ffffffffffffffffffffffffffffffffffffffff82169050919050565b6000620000fb82620000ce565b9050919050565b6200010d81620000ee565b81146200011957600080fd5b50565b6000815190506200012d8162000102565b92915050565b600080604083850312156200014d576200014c620000c9565b5b60006200015d858286016200011c565b925050602062000170858286016200011c565b9150509250929050565b6110bc806200018a6000396000f3fe608060405234801561001057600080fd5b506004361061004c5760003560e01c80630cf20913146100515780635aa6e6751461006d5780639ab603b91461008b578063fc0c546a146100a7575b600080fd5b61006b600480360381019061006691906109a6565b6100c5565b005b6100756102e8565b6040516100829190610a32565b60405180910390f35b6100a560048036038101906100a09190610a83565b61030e565b005b6100af6106c3565b6040516100bc9190610ad1565b60405180910390f35b600260009054906101000a900473ffffffffffffffffffffffffffffffffffffffff1673ffffffffffffffffffffffffffffffffffffffff163373ffffffffffffffffffffffffffffffffffffffff1614610155576040517f08c379a000000000000000000000000000000000000000000000000000000000815260040161014c90610b6f565b60405180910390fd5b6000600160009054906101000a900473ffffffffffffffffffffffffffffffffffffffff1673ffffffffffffffffffffffffffffffffffffffff166370a08231306040518263ffffffff1660e01b81526004016101b29190610b9e565b602060405180830381865afa1580156101cf573d6000803e3d6000fd5b505050506040513d601f19601f820116820180604052508101906101f39190610bce565b9050600160009054906101000a900473ffffffffffffffffffffffffffffffffffffffff1673ffffffffffffffffffffffffffffffffffffffff1663a9059cbb83836040518363ffffffff1660e01b8152600401610252929190610c0a565b6020604051808303816000875af1158015610271573d6000803e3d6000fd5b505050506040513d601f19601f820116820180604052508101906102959190610c6b565b508173ffffffffffffffffffffffffffffffffffffffff167f01299bd5af84e23c4c82c1d4eddf2a9c00e70b8b886076d06cdbe7c6fc80a87d826040516102dc9190610c98565b60405180910390a25050565b600260009054906101000a900473ffffffffffffffffffffffffffffffffffffffff1681565b6103166106e9565b6000600160009054906101000a900473ffffffffffffffffffffffffffffffffffffffff1673ffffffffffffffffffffffffffffffffffffffff166370a08231306040518263ffffffff1660e01b81526004016103739190610b9e565b602060405180830381865afa158015610390573d6000803e3d6000fd5b505050506040513d601f19601f820116820180604052508101906103b49190610bce565b9050818110156103f9576040517f08c379a00000000000000000000000000000000000000000000000000000000081526004016103f090610cff565b60405180910390fd5b600160009054906101000a900473ffffffffffffffffffffffffffffffffffffffff1673ffffffffffffffffffffffffffffffffffffffff1663a9059cbb33846040518363ffffffff1660e01b8152600401610456929190610c0a565b6020604051808303816000875af1158015610475573d6000803e3d6000fd5b505050506040513d601f19601f820116820180604052508101906104999190610c6b565b506104b93373ffffffffffffffffffffffffffffffffffffffff16610738565b6104f8576040517f08c379a00000000000000000000000000000000000000000000000000000000081526004016104ef90610d91565b60405180910390fd5b6105d2600160009054906101000a900473ffffffffffffffffffffffffffffffffffffffff1683604051602401610530929190610c0a565b6040516020818303038152906040527f35729130000000000000000000000000000000000000000000000000000000007bffffffffffffffffffffffffffffffffffffffffffffffffffffffff19166020820180517bffffffffffffffffffffffffffffffffffffffffffffffffffffffff83818316178352505050503373ffffffffffffffffffffffffffffffffffffffff1661075b90919063ffffffff16565b506000600160009054906101000a900473ffffffffffffffffffffffffffffffffffffffff1673ffffffffffffffffffffffffffffffffffffffff166370a08231306040518263ffffffff1660e01b81526004016106309190610b9e565b602060405180830381865afa15801561064d573d6000803e3d6000fd5b505050506040513d601f19601f820116820180604052508101906106719190610bce565b9050818110156106b6576040517f08c379a00000000000000000000000000000000000000000000000000000000081526004016106ad90610dfd565b60405180910390fd5b50506106c06107a7565b50565b600160009054906101000a900473ffffffffffffffffffffffffffffffffffffffff1681565b60026000540361072e576040517f08c379a000000000000000000000000000000000000000000000000000000000815260040161072590610e69565b60405180910390fd5b6002600081905550565b6000808273ffffffffffffffffffffffffffffffffffffffff163b119050919050565b606061079f838360006040518060400160405280601e81526020017f416464726573733a206c6f772d6c6576656c2063616c6c206661696c656400008152506107b1565b905092915050565b6001600081905550565b6060824710156107f6576040517f08c379a00000000000000000000000000000000000000000000000000000000081526004016107ed90610efb565b60405180910390fd5b6000808673ffffffffffffffffffffffffffffffffffffffff16858760405161081f9190610f8c565b60006040518083038185875af1925050503d806000811461085c576040519150601f19603f3d011682016040523d82523d6000602084013e610861565b606091505b50915091506108728783838761087e565b92505050949350505050565b606083156108e05760008351036108d85761089885610738565b6108d7576040517f08c379a00000000000000000000000000000000000000000000000000000000081526004016108ce90610fef565b60405180910390fd5b5b8290506108eb565b6108ea83836108f3565b5b949350505050565b6000825111156109065781518083602001fd5b806040517f08c379a000000000000000000000000000000000000000000000000000000000815260040161093a9190611064565b60405180910390fd5b600080fd5b600073ffffffffffffffffffffffffffffffffffffffff82169050919050565b600061097382610948565b9050919050565b61098381610968565b811461098e57600080fd5b50565b6000813590506109a08161097a565b92915050565b6000602082840312156109bc576109bb610943565b5b60006109ca84828501610991565b91505092915050565b6000819050919050565b60006109f86109f36109ee84610948565b6109d3565b610948565b9050919050565b6000610a0a826109dd565b9050919050565b6000610a1c826109ff565b9050919050565b610a2c81610a11565b82525050565b6000602082019050610a476000830184610a23565b92915050565b6000819050919050565b610a6081610a4d565b8114610a6b57600080fd5b50565b600081359050610a7d81610a57565b92915050565b600060208284031215610a9957610a98610943565b5b6000610aa784828501610a6e565b91505092915050565b6000610abb826109ff565b9050919050565b610acb81610ab0565b82525050565b6000602082019050610ae66000830184610ac2565b92915050565b600082825260208201905092915050565b7f4f6e6c7920676f7665726e616e63652063616e2065786563757465207468697360008201527f20616374696f6e00000000000000000000000000000000000000000000000000602082015250565b6000610b59602783610aec565b9150610b6482610afd565b604082019050919050565b60006020820190508181036000830152610b8881610b4c565b9050919050565b610b9881610968565b82525050565b6000602082019050610bb36000830184610b8f565b92915050565b600081519050610bc881610a57565b92915050565b600060208284031215610be457610be3610943565b5b6000610bf284828501610bb9565b91505092915050565b610c0481610a4d565b82525050565b6000604082019050610c1f6000830185610b8f565b610c2c6020830184610bfb565b9392505050565b60008115159050919050565b610c4881610c33565b8114610c5357600080fd5b50565b600081519050610c6581610c3f565b92915050565b600060208284031215610c8157610c80610943565b5b6000610c8f84828501610c56565b91505092915050565b6000602082019050610cad6000830184610bfb565b92915050565b7f4e6f7420656e6f75676820746f6b656e7320696e20706f6f6c00000000000000600082015250565b6000610ce9601983610aec565b9150610cf482610cb3565b602082019050919050565b60006020820190508181036000830152610d1881610cdc565b9050919050565b7f53656e646572206d7573742062652061206465706c6f79656420636f6e74726160008201527f6374000000000000000000000000000000000000000000000000000000000000602082015250565b6000610d7b602283610aec565b9150610d8682610d1f565b604082019050919050565b60006020820190508181036000830152610daa81610d6e565b9050919050565b7f466c617368206c6f616e206861736e2774206265656e2070616964206261636b600082015250565b6000610de7602083610aec565b9150610df282610db1565b602082019050919050565b60006020820190508181036000830152610e1681610dda565b9050919050565b7f5265656e7472616e637947756172643a207265656e7472616e742063616c6c00600082015250565b6000610e53601f83610aec565b9150610e5e82610e1d565b602082019050919050565b60006020820190508181036000830152610e8281610e46565b9050919050565b7f416464726573733a20696e73756666696369656e742062616c616e636520666f60008201527f722063616c6c0000000000000000000000000000000000000000000000000000602082015250565b6000610ee5602683610aec565b9150610ef082610e89565b604082019050919050565b60006020820190508181036000830152610f1481610ed8565b9050919050565b600081519050919050565b600081905092915050565b60005b83811015610f4f578082015181840152602081019050610f34565b60008484015250505050565b6000610f6682610f1b565b610f708185610f26565b9350610f80818560208601610f31565b80840191505092915050565b6000610f988284610f5b565b915081905092915050565b7f416464726573733a2063616c6c20746f206e6f6e2d636f6e7472616374000000600082015250565b6000610fd9601d83610aec565b9150610fe482610fa3565b602082019050919050565b6000602082019050818103600083015261100881610fcc565b9050919050565b600081519050919050565b6000601f19601f8301169050919050565b60006110368261100f565b6110408185610aec565b9350611050818560208601610f31565b6110598161101a565b840191505092915050565b6000602082019050818103600083015261107e818461102b565b90509291505056fea26469706673582212207b2797eaaa9eb3f5f24d05f28d21b5129b623a4d927c997342384442e55401a364736f6c63430008180033",
  "linkReferences": {},
  "deployedLinkReferences": {}
}