{
  "_format": "hh-sol-artifact-1",
  "contractName": "WalletRegistry",
  "sourceName": "contracts/WalletRegistry.sol",
  "abi": [
    {
      "inputs": [
        {
          "internalType": "address",
          "name": "masterCopyAddress",
          "type": "address"
        },
        {
          "internalType": "address",
          "name": "walletFactoryAddress",
          "type": "address"
        },
        {
          "internalType": "address",
          "name": "tokenAddress",
          "type": "address"
        },
        {
          "internalType": "address[]",
          "name": "initialBeneficiaries",
          "type": "address[]"
        }
      ],
      "stateMutability": "nonpayable",
      "type": "constructor"
    },
    {
      "inputs": [],
      "name": "AlreadyInitialized",
      "type": "error"
    },
    {
      "inputs": [],
      "name": "CallerNotFactory",
      "type": "error"
    },
    {
      "inputs": [],
      "name": "FakeMasterCopy",
      "type": "error"
    },
    {
      "inputs": [
        {
          "internalType": "address",
          "name": "fallbackManager",
          "type": "address"
        }
      ],
      "name": "InvalidFallbackManager",
      "type": "error"
    },
    {
      "inputs": [],
      "name": "InvalidInitialization",
      "type": "error"
    },
    {
      "inputs": [
        {
          "internalType": "uint256",
          "name": "count",
          "type": "uint256"
        }
      ],
      "name": "InvalidOwnersCount",
      "type": "error"
    },
    {
      "inputs": [
        {
          "internalType": "uint256",
          "name": "threshold",
          "type": "uint256"
        }
      ],
      "name": "InvalidThreshold",
      "type": "error"
    },
    {
      "inputs": [],
      "name": "NewOwnerIsZeroAddress",
      "type": "error"
    },
    {
      "inputs": [],
      "name": "NoHandoverRequest",
      "type": "error"
    },
    {
      "inputs": [],
      "name": "NotEnoughFunds",
      "type": "error"
    },
    {
      "inputs": [],
      "name": "OwnerIsNotABeneficiary",
      "type": "error"
    },
    {
      "inputs": [],
      "name": "Unauthorized",
      "type": "error"
    },
    {
      "anonymous": false,
      "inputs": [
        {
          "indexed": true,
          "internalType": "address",
          "name": "pendingOwner",
          "type": "address"
        }
      ],
      "name": "OwnershipHandoverCanceled",
      "type": "event"
    },
    {
      "anonymous": false,
      "inputs": [
        {
          "indexed": true,
          "internalType": "address",
          "name": "pendingOwner",
          "type": "address"
        }
      ],
      "name": "OwnershipHandoverRequested",
      "type": "event"
    },
    {
      "anonymous": false,
      "inputs": [
        {
          "indexed": true,
          "internalType": "address",
          "name": "oldOwner",
          "type": "address"
        },
        {
          "indexed": true,
          "internalType": "address",
          "name": "newOwner",
          "type": "address"
        }
      ],
      "name": "OwnershipTransferred",
      "type": "event"
    },
    {
      "inputs": [
        {
          "internalType": "address",
          "name": "beneficiary",
          "type": "address"
        }
      ],
      "name": "addBeneficiary",
      "outputs": [],
      "stateMutability": "nonpayable",
      "type": "function"
    },
    {
      "inputs": [
        {
          "internalType": "address",
          "name": "",
          "type": "address"
        }
      ],
      "name": "beneficiaries",
      "outputs": [
        {
          "internalType": "bool",
          "name": "",
          "type": "bool"
        }
      ],
      "stateMutability": "view",
      "type": "function"
    },
    {
      "inputs": [],
      "name": "cancelOwnershipHandover",
      "outputs": [],
      "stateMutability": "payable",
      "type": "function"
    },
    {
      "inputs": [
        {
          "internalType": "address",
          "name": "pendingOwner",
          "type": "address"
        }
      ],
      "name": "completeOwnershipHandover",
      "outputs": [],
      "stateMutability": "payable",
      "type": "function"
    },
    {
      "inputs": [],
      "name": "masterCopy",
      "outputs": [
        {
          "internalType": "address",
          "name": "",
          "type": "address"
        }
      ],
      "stateMutability": "view",
      "type": "function"
    },
    {
      "inputs": [],
      "name": "owner",
      "outputs": [
        {
          "internalType": "address",
          "name": "result",
          "type": "address"
        }
      ],
      "stateMutability": "view",
      "type": "function"
    },
    {
      "inputs": [
        {
          "internalType": "address",
          "name": "pendingOwner",
          "type": "address"
        }
      ],
      "name": "ownershipHandoverExpiresAt",
      "outputs": [
        {
          "internalType": "uint256",
          "name": "result",
          "type": "uint256"
        }
      ],
      "stateMutability": "view",
      "type": "function"
    },
    {
      "inputs": [
        {
          "internalType": "contract GnosisSafeProxy",
          "name": "proxy",
          "type": "address"
        },
        {
          "internalType": "address",
          "name": "singleton",
          "type": "address"
        },
        {
          "internalType": "bytes",
          "name": "initializer",
          "type": "bytes"
        },
        {
          "internalType": "uint256",
          "name": "",
          "type": "uint256"
        }
      ],
      "name": "proxyCreated",
      "outputs": [],
      "stateMutability": "nonpayable",
      "type": "function"
    },
    {
      "inputs": [],
      "name": "renounceOwnership",
      "outputs": [],
      "stateMutability": "payable",
      "type": "function"
    },
    {
      "inputs": [],
      "name": "requestOwnershipHandover",
      "outputs": [],
      "stateMutability": "payable",
      "type": "function"
    },
    {
      "inputs": [],
      "name": "token",
      "outputs": [
        {
          "internalType": "contract IERC20",
          "name": "",
          "type": "address"
        }
      ],
      "stateMutability": "view",
      "type": "function"
    },
    {
      "inputs": [
        {
          "internalType": "address",
          "name": "newOwner",
          "type": "address"
        }
      ],
      "name": "transferOwnership",
      "outputs": [],
      "stateMutability": "payable",
      "type": "function"
    },
    {
      "inputs": [],
      "name": "walletFactory",
      "outputs": [
        {
          "internalType": "address",
          "name": "",
          "type": "address"
        }
      ],
      "stateMutability": "view",
      "type": "function"
    },
    {
      "inputs": [
        {
          "internalType": "address",
          "name": "",
          "type": "address"
        }
      ],
      "name": "wallets",
      "outputs": [
        {
          "internalType": "address",
          "name": "",
          "type": "address"
        }
      ],
      "stateMutability": "view",
      "type": "function"
    }
  ],
  "bytecode": "0x60e06040523480156200001157600080fd5b5060405162001b3338038062001b33833981810160405281019062000037919062000455565b62000048336200017c60201b60201c565b8373ffffffffffffffffffffffffffffffffffffffff1660808173ffffffffffffffffffffffffffffffffffffffff16815250508273ffffffffffffffffffffffffffffffffffffffff1660a08173ffffffffffffffffffffffffffffffffffffffff16815250508173ffffffffffffffffffffffffffffffffffffffff1660c08173ffffffffffffffffffffffffffffffffffffffff168152505060005b8151811015620001715760016000808484815181106200010c576200010b620004e6565b5b602002602001015173ffffffffffffffffffffffffffffffffffffffff1673ffffffffffffffffffffffffffffffffffffffff16815260200190815260200160002060006101000a81548160ff021916908315150217905550806001019050620000e7565b505050505062000515565b6200018c6200026260201b60201c565b156200020a577fffffffffffffffffffffffffffffffffffffffffffffffffffffffff74873927805415620001c957630dc149f06000526004601cfd5b8160601b60601c9150811560ff1b821781558160007f8be0079c531659141344cd1fd0a4f28419497f9722a3daafe3b4186f6b6457e0600080a3506200025f565b8060601b60601c9050807fffffffffffffffffffffffffffffffffffffffffffffffffffffffff74873927558060007f8be0079c531659141344cd1fd0a4f28419497f9722a3daafe3b4186f6b6457e0600080a35b50565b600090565b6000604051905090565b600080fd5b600080fd5b600073ffffffffffffffffffffffffffffffffffffffff82169050919050565b6000620002a8826200027b565b9050919050565b620002ba816200029b565b8114620002c657600080fd5b50565b600081519050620002da81620002af565b92915050565b600080fd5b6000601f19601f8301169050919050565b7f4e487b7100000000000000000000000000000000000000000000000000000000600052604160045260246000fd5b6200033082620002e5565b810181811067ffffffffffffffff82111715620003525762000351620002f6565b5b80604052505050565b60006200036762000267565b905062000375828262000325565b919050565b600067ffffffffffffffff821115620003985762000397620002f6565b5b602082029050602081019050919050565b600080fd5b6000620003c5620003bf846200037a565b6200035b565b90508083825260208201905060208402830185811115620003eb57620003ea620003a9565b5b835b81811015620004185780620004038882620002c9565b845260208401935050602081019050620003ed565b5050509392505050565b600082601f8301126200043a5762000439620002e0565b5b81516200044c848260208601620003ae565b91505092915050565b6000806000806080858703121562000472576200047162000271565b5b60006200048287828801620002c9565b94505060206200049587828801620002c9565b9350506040620004a887828801620002c9565b925050606085015167ffffffffffffffff811115620004cc57620004cb62000276565b5b620004da8782880162000422565b91505092959194509250565b7f4e487b7100000000000000000000000000000000000000000000000000000000600052603260045260246000fd5b60805160a05160c0516115d26200056160003960008181610318015281816109040152610b4d0152600081816103ef0152610abe0152600081816104740152610a9a01526115d26000f3fe6080604052600436106100dd5760003560e01c80638da5cb5b1161007f578063f04e283e11610059578063f04e283e1461024d578063f2fde38b14610269578063fc0c546a14610285578063fee81cf4146102b0576100dd565b80638da5cb5b146101cc578063a619486e146101f7578063c5c0369914610222576100dd565b806354d1f13d116100bb57806354d1f13d146101525780635926651d1461015c578063715018a61461018557806389b08f111461018f576100dd565b806301567739146100e25780631e52b5181461011f5780632569296214610148575b600080fd5b3480156100ee57600080fd5b5061010960048036038101906101049190610e1c565b6102ed565b6040516101169190610e64565b60405180910390f35b34801561012b57600080fd5b5061014660048036038101906101419190610f6a565b61030d565b005b61015061093e565b005b61015a610992565b005b34801561016857600080fd5b50610183600480360381019061017e9190610e1c565b6109ce565b005b61018d610a28565b005b34801561019b57600080fd5b506101b660048036038101906101b19190610e1c565b610a3c565b6040516101c39190611001565b60405180910390f35b3480156101d857600080fd5b506101e1610a6f565b6040516101ee9190611001565b60405180910390f35b34801561020357600080fd5b5061020c610a98565b6040516102199190611001565b60405180910390f35b34801561022e57600080fd5b50610237610abc565b6040516102449190611001565b60405180910390f35b61026760048036038101906102629190610e1c565b610ae0565b005b610283600480360381019061027e9190610e1c565b610b21565b005b34801561029157600080fd5b5061029a610b4b565b6040516102a7919061107b565b60405180910390f35b3480156102bc57600080fd5b506102d760048036038101906102d29190610e1c565b610b6f565b6040516102e491906110a5565b60405180910390f35b60006020528060005260406000206000915054906101000a900460ff1681565b678ac7230489e800007f000000000000000000000000000000000000000000000000000000000000000073ffffffffffffffffffffffffffffffffffffffff166370a08231306040518263ffffffff1660e01b815260040161036f9190611001565b602060405180830381865afa15801561038c573d6000803e3d6000fd5b505050506040513d601f19601f820116820180604052508101906103b091906110d5565b10156103e8576040517f81b5ad6800000000000000000000000000000000000000000000000000000000815260040160405180910390fd5b60008590507f000000000000000000000000000000000000000000000000000000000000000073ffffffffffffffffffffffffffffffffffffffff163373ffffffffffffffffffffffffffffffffffffffff1614610472576040517fa84178ab00000000000000000000000000000000000000000000000000000000815260040160405180910390fd5b7f000000000000000000000000000000000000000000000000000000000000000073ffffffffffffffffffffffffffffffffffffffff168573ffffffffffffffffffffffffffffffffffffffff16146104f7576040517ff73e596700000000000000000000000000000000000000000000000000000000815260040160405180910390fd5b63b63e800d60e01b7bffffffffffffffffffffffffffffffffffffffffffffffffffffffff191684846000906004926105329392919061110c565b9061053d919061118b565b7bffffffffffffffffffffffffffffffffffffffffffffffffffffffff191614610593576040517ff92ee8a900000000000000000000000000000000000000000000000000000000815260040160405180910390fd5b60008173ffffffffffffffffffffffffffffffffffffffff1663e75235b86040518163ffffffff1660e01b8152600401602060405180830381865afa1580156105e0573d6000803e3d6000fd5b505050506040513d601f19601f8201168201806040525081019061060491906110d5565b90506001811461064b57806040517f651a749b00000000000000000000000000000000000000000000000000000000815260040161064291906110a5565b60405180910390fd5b60008273ffffffffffffffffffffffffffffffffffffffff1663a0e67e2b6040518163ffffffff1660e01b8152600401600060405180830381865afa158015610698573d6000803e3d6000fd5b505050506040513d6000823e3d601f19601f820116820180604052508101906106c1919061134e565b9050600181511461070a5780516040517fbbf04dc900000000000000000000000000000000000000000000000000000000815260040161070191906110a5565b60405180910390fd5b6000816000815181106107205761071f611397565b5b602002602001015190506000808273ffffffffffffffffffffffffffffffffffffffff1673ffffffffffffffffffffffffffffffffffffffff16815260200190815260200160002060009054906101000a900460ff166107ac576040517feeeb7ce800000000000000000000000000000000000000000000000000000000815260040160405180910390fd5b60006107b785610b8a565b9050600073ffffffffffffffffffffffffffffffffffffffff168173ffffffffffffffffffffffffffffffffffffffff161461082a57806040517fe47fc1820000000000000000000000000000000000000000000000000000000081526004016108219190611001565b60405180910390fd5b60008060008473ffffffffffffffffffffffffffffffffffffffff1673ffffffffffffffffffffffffffffffffffffffff16815260200190815260200160002060006101000a81548160ff02191690831515021790555084600160008473ffffffffffffffffffffffffffffffffffffffff1673ffffffffffffffffffffffffffffffffffffffff16815260200190815260200160002060006101000a81548173ffffffffffffffffffffffffffffffffffffffff021916908373ffffffffffffffffffffffffffffffffffffffff1602179055506109327f000000000000000000000000000000000000000000000000000000000000000086678ac7230489e80000610c4b565b50505050505050505050565b6000610948610c9a565b67ffffffffffffffff164201905063389a75e1600c5233600052806020600c2055337fdbf36a107da19e49527a7176a1babf963b4b0ff8cde35ee35d6cd8f1f9ac7e1d600080a250565b63389a75e1600c523360005260006020600c2055337ffa7b8eab7da67f412cc9575ed43464468f9bfbae89d1675917346ca6d8fe3c92600080a2565b60016000808373ffffffffffffffffffffffffffffffffffffffff1673ffffffffffffffffffffffffffffffffffffffff16815260200190815260200160002060006101000a81548160ff02191690831515021790555050565b610a30610ca5565b610a3a6000610cdd565b565b60016020528060005260406000206000915054906101000a900473ffffffffffffffffffffffffffffffffffffffff1681565b60007fffffffffffffffffffffffffffffffffffffffffffffffffffffffff7487392754905090565b7f000000000000000000000000000000000000000000000000000000000000000081565b7f000000000000000000000000000000000000000000000000000000000000000081565b610ae8610ca5565b63389a75e1600c52806000526020600c208054421115610b1057636f5e88186000526004601cfd5b6000815550610b1e81610cdd565b50565b610b29610ca5565b8060601b610b3f57637448fbae6000526004601cfd5b610b4881610cdd565b50565b7f000000000000000000000000000000000000000000000000000000000000000081565b600063389a75e1600c52816000526020600c20549050919050565b60008173ffffffffffffffffffffffffffffffffffffffff16635624b25b7f6c9a6c4a39284e37ed1cf53d337577d14212a4870fb976a4366c693b939918d560001c60206040518363ffffffff1660e01b8152600401610beb929190611401565b600060405180830381865afa158015610c08573d6000803e3d6000fd5b505050506040513d6000823e3d601f19601f82011682018060405250810190610c3191906114fa565b806020019051810190610c44919061156f565b9050919050565b81601452806034526fa9059cbb00000000000000000000000060005260206000604460106000875af13d156001600051141716610c90576390b8ec186000526004601cfd5b6000603452505050565b60006202a300905090565b7fffffffffffffffffffffffffffffffffffffffffffffffffffffffff74873927543314610cdb576382b429006000526004601cfd5b565b610ce5610da5565b15610d4b577fffffffffffffffffffffffffffffffffffffffffffffffffffffffff748739278160601b60601c91508181547f8be0079c531659141344cd1fd0a4f28419497f9722a3daafe3b4186f6b6457e0600080a3811560ff1b8217815550610da2565b7fffffffffffffffffffffffffffffffffffffffffffffffffffffffff748739278160601b60601c91508181547f8be0079c531659141344cd1fd0a4f28419497f9722a3daafe3b4186f6b6457e0600080a3818155505b50565b600090565b6000604051905090565b600080fd5b600080fd5b600073ffffffffffffffffffffffffffffffffffffffff82169050919050565b6000610de982610dbe565b9050919050565b610df981610dde565b8114610e0457600080fd5b50565b600081359050610e1681610df0565b92915050565b600060208284031215610e3257610e31610db4565b5b6000610e4084828501610e07565b91505092915050565b60008115159050919050565b610e5e81610e49565b82525050565b6000602082019050610e796000830184610e55565b92915050565b6000610e8a82610dbe565b9050919050565b6000610e9c82610e7f565b9050919050565b610eac81610e91565b8114610eb757600080fd5b50565b600081359050610ec981610ea3565b92915050565b600080fd5b600080fd5b600080fd5b60008083601f840112610ef457610ef3610ecf565b5b8235905067ffffffffffffffff811115610f1157610f10610ed4565b5b602083019150836001820283011115610f2d57610f2c610ed9565b5b9250929050565b6000819050919050565b610f4781610f34565b8114610f5257600080fd5b50565b600081359050610f6481610f3e565b92915050565b600080600080600060808688031215610f8657610f85610db4565b5b6000610f9488828901610eba565b9550506020610fa588828901610e07565b945050604086013567ffffffffffffffff811115610fc657610fc5610db9565b5b610fd288828901610ede565b93509350506060610fe588828901610f55565b9150509295509295909350565b610ffb81610dde565b82525050565b60006020820190506110166000830184610ff2565b92915050565b6000819050919050565b600061104161103c61103784610dbe565b61101c565b610dbe565b9050919050565b600061105382611026565b9050919050565b600061106582611048565b9050919050565b6110758161105a565b82525050565b6000602082019050611090600083018461106c565b92915050565b61109f81610f34565b82525050565b60006020820190506110ba6000830184611096565b92915050565b6000815190506110cf81610f3e565b92915050565b6000602082840312156110eb576110ea610db4565b5b60006110f9848285016110c0565b91505092915050565b600080fd5b600080fd5b600080858511156111205761111f611102565b5b8386111561113157611130611107565b5b6001850283019150848603905094509492505050565b600082905092915050565b60007fffffffff0000000000000000000000000000000000000000000000000000000082169050919050565b600082821b905092915050565b60006111978383611147565b826111a28135611152565b925060048210156111e2576111dd7fffffffff000000000000000000000000000000000000000000000000000000008360040360080261117e565b831692505b505092915050565b6000601f19601f8301169050919050565b7f4e487b7100000000000000000000000000000000000000000000000000000000600052604160045260246000fd5b611233826111ea565b810181811067ffffffffffffffff82111715611252576112516111fb565b5b80604052505050565b6000611265610daa565b9050611271828261122a565b919050565b600067ffffffffffffffff821115611291576112906111fb565b5b602082029050602081019050919050565b6000815190506112b181610df0565b92915050565b60006112ca6112c584611276565b61125b565b905080838252602082019050602084028301858111156112ed576112ec610ed9565b5b835b81811015611316578061130288826112a2565b8452602084019350506020810190506112ef565b5050509392505050565b600082601f83011261133557611334610ecf565b5b81516113458482602086016112b7565b91505092915050565b60006020828403121561136457611363610db4565b5b600082015167ffffffffffffffff81111561138257611381610db9565b5b61138e84828501611320565b91505092915050565b7f4e487b7100000000000000000000000000000000000000000000000000000000600052603260045260246000fd5b6000819050919050565b60006113eb6113e66113e1846113c6565b61101c565b610f34565b9050919050565b6113fb816113d0565b82525050565b60006040820190506114166000830185611096565b61142360208301846113f2565b9392505050565b600080fd5b600067ffffffffffffffff82111561144a576114496111fb565b5b611453826111ea565b9050602081019050919050565b60005b8381101561147e578082015181840152602081019050611463565b60008484015250505050565b600061149d6114988461142f565b61125b565b9050828152602081018484840111156114b9576114b861142a565b5b6114c4848285611460565b509392505050565b600082601f8301126114e1576114e0610ecf565b5b81516114f184826020860161148a565b91505092915050565b6000602082840312156115105761150f610db4565b5b600082015167ffffffffffffffff81111561152e5761152d610db9565b5b61153a848285016114cc565b91505092915050565b61154c81610e7f565b811461155757600080fd5b50565b60008151905061156981611543565b92915050565b60006020828403121561158557611584610db4565b5b60006115938482850161155a565b9150509291505056fea264697066735822122091d1a5c9ae3db5b0b835d3bc9363f8d9b7ccae52ca45b39fdf07ec7c33fb89c864736f6c63430008180033",
  "linkReferences": {},
  "deployedLinkReferences": {}
}